:0C0000000C9463000C9400000C940000B1
:10000C000C9400000C9400000C9400000C94000064
:10001C000C9400000C9400000C9400000C94000054
:10002C000C9400000C9400000C9400000C94000044
:10003C000C9400000C9400000C9400000C94000034
:10004C000C9400000C9400001027E80364000A00D4
:10005C0001000010000110000100FEFDFBF7005034
:10006C0072657373204F4E20746F205374617274D9
:10007C002E2E2E00256400582077696E7321004FB8
:10008C002077696E732100447261770080C0040090
:10009C00AF016600010060016A00150061016B0090
:1000AC0008007601830008007E018B0005008601A4
:1000BC0093000200B50198000000F894EE27ECBB09
:1000CC00F1E0FBBFEBBFE5BF8DE0A2E0BB27ED93FA
:1000DC008A95E9F780E094E0A0E6ED930197E9F7C3
:1000EC00EAE9F0E085919591009761F0A591B591C1
:1000FC0005901590BF01F00105900D920197E1F765
:10010C00FB01F0CFEFE5EDBFE4E0EEBFC0E6D1E0E0
:10011C000C94CF01AA24BB24E4E0F0E0AE16BF0699
:10012C00A4F5E6EFFFEF6F01AFEAB1E0AA0DBB1D3E
:10013C00EC91E5BBEFE0E4BB9C9902C0CC24DD2440
:10014C009D9B03C0E1E0F0E06F019E9B03C0E2E0E9
:10015C00F0E06F019F9B03C0E3E0F0E06F01E6EF7E
:10016C00FFEFEC15FD0549F09C9BFECF9D9BFECF50
:10017C009E9BFECF9F9BFECF0895A5E0B0E00E9412
:10018C009A05F50131965F01C7CFC4CF442455249D
:10019C006624772488249924E3EBF1E0FA93EA931C
:1001AC00A0E6B1E00E94F604AA24BB240E941C0520
:1001BC008CF4CC24DD240E94210544F40E942605F5
:1001CC000E943405F60131966F01F5CFF501319699
:1001DC005F01ECCFAA24BB240E94390534F40E94A1
:1001EC003E05F50131965F01F7CFAA24BB24CC2440
:1001FC00DD240E94BE02A1E6B1E00E94FA020E9438
:10020C0046050E9452051C97D1F70E94BE02E3E0FE
:10021C00F0E05F0100240A140B04FCF4E3EBF1E0C2
:10022C00FA93EA93E0E8F0E0FA93EA93F5010E947E
:10023C00B1050E94CB0584E00E94C2042896A3EB72
:10024C00B1E00E94FA02A8ECB0E00E949A050E946C
:10025C00BE02F50131975F01DDCF08950E94BE0209
:10026C00AA24BB240E941C0574F5CC24DD240E9416
:10027C0021052CF5CA92AA2D0E94AA020E942605DD
:10028C000E94C305E130A0E0FA0711F4A8E511C003
:10029C000E9426050E94C305EF3FAFEFFA0711F449
:1002AC00AFE407C00E9426050E94C305309719F4DD
:1002BC00ADE20E94D302F60131966F01D8CFF50161
:1002CC0031965F01CFCF0895AA24BB240E94390533
:1002DC0034F40E943E05F50131965F01F7CFAA2454
:1002EC00BB240E941C050CF053C0CC24DD240E94BE
:1002FC0021050CF049C00E945705EA0FFB1FCF01E6
:10030C00608171810E9426050E945D05F50133967E
:10031C00ADE9B1E0EE0FFF1FEA0FFB1FCF016081CB
:10032C007181F601A6E0B0E00E94BB05E557FE4FD7
:10033C00DF01F501EE0FFF1FAE0FBF1F0E945D0521
:10034C00AC14BD0441F40E9426050E94C305E09341
:10035C00A901F093AA01F601EA0DFB1DE230A0E021
:10036C00FA0771F40E9426050E94C305A091AB0107
:10037C00B091AC01EA0FFB1FE093AB01F093AC0121
:10038C00F60131966F01B3CFF50131965F01A9CF1C
:10039C000895EFEFE5BBEFE0E4BBA4E10E941C0382
:1003AC00F5DE5CDF082C092809F067C0B3DEE3E05A
:1003BC00F0E0EA15FB0519F0EC15FD0509F41CC07D
:1003CC000E9426050E94C3053097B1F4042C052821
:1003DC0029F40E942605E1E0F0E004C00E94260505
:1003EC00EFEFFFEFED93FC93F2010E94B6054E2E5A
:1003FC005524F30131963F01F5010E94AC05EC0D3B
:10040C00FD1DE093AD01F093AE010E9452051D97C6
:10041C0009F4BCDE23DF58DFAA24BB240E94390573
:10042C00F4F40E945705AE0FBF1F0E94C305E330C2
:10043C00A0E0FA0719F4E1E0F0E00CC00E945705C7
:10044C00AE0FBF1F0E94C305ED3FAFEFFA0719F4C3
:10045C00EFEFFFEF4F01F50131965F01DFCFE9E0E0
:10046C00F0E0E615F70521F400240814090409F05E
:10047C0003C0E2E0F0E04F0195CFE9E0EA93A2E09F
:10048C000E94AA02E1E0F0E0E815F90519F4A6E7EC
:10049C00B1E00FC0EFEFFFEFE815F90519F4AEE787
:1004AC00B1E007C0E2E0F0E0E815F90521F4A6E8B8
:1004BC00B1E00E94FA020E9446050E9452051D9767
:1004CC0009F464DEF8CFFFCFFFE0FA95F1F7089559
:1004DC00A1B3AF70A1BB919A9098F6DF929AF4DF1A
:1004EC00A0B39298F1DF929AEFDF9298A7FDF5CF27
:1004FC000895A07FAB2BA2BB929A0E946A0292989D
:10050C000E946A020895AA939198A1B3A76FA1BB08
:10051C00B2B3BF70A881EDDFA881A295EADF919AF2
:10052C000C944E03929A0E946A02E0B392980E9435
:10053C006A02E07F08950E946A02F4DFAE2FF2DFB8
:10054C009198E295EA2B0895AA930E946E02E88195
:10055C00F0E0EB54FE4FE081A981AE0F0E948902BE
:10056C00E981E093B901E881E093BA0122960895FC
:10057C000E946E02A2E00E9489020E946E02ACE010
:10058C000E9489020E946E02A1E00E948902E0E0B2
:10059C00E093BA01E093B9010895AA93EF93FF9306
:1005AC00A8816894AA3039F0E894E091BB01A0913D
:1005BC00B901AE1758F0E091BA01EF5FE093BA01C0
:1005CC00E0E0EA93A091BA01BFDF56F0E091B901E7
:1005DC00EF5FE093B9017CDF909AA8810E948902B9
:1005EC00FF91EF910C944E03BA93AA931A93A9819D
:1005FC00BA81ED91A983BA831E2FE03019F0A12F97
:10060C00CCDFF5CF188123960895AA27BB27119725
:10061C00F1F70895AA939198A1B3A76FA1BBB2B3B8
:10062C00BF70A8810E947F02919A32C0AA939298BF
:10063C009098E881E093BB01E058E093B701E88122
:10064C00E054E093B8010E9465050E9465050E9484
:10065C006505DBDFA0E2DEDFD8DFA8E20E946A05D9
:10066C00A4E00E946A05A5E80E946A05A1B3AF70D8
:10067C00A1BB919A0E94A102E53011F0E0E008C004
:10068C000E946E02A6E00E9489020E94BE02E1E076
:10069C0021960895BA93AA931A930A93AA81BB81BF
:1006AC0012960E94C305309759F1AA81BB8114960A
:1006BC000E94C3058F01309761F00230E0E01E0705
:1006CC0098F0F80131978F01AA81BB811496ED93B4
:1006DC00FC93AA81BB811296ED91FD913196FE930C
:1006EC00EE933197AC81A083AA81BB810E94C30594
:1006FC00FF232AF0ED91FD913196FE93EE9306C007
:10070C00AA81BB81EFEFFFEFED93FC931981088178
:10071C0025960895BA93AA9326970E94D00510E0C7
:10072C00AC85BD850E943405EA89FB893196EA8B3C
:10073C00FB8B3197E4912E2FE03009F415C1E12F9A
:10074C00E03039F4253211F411E002C00E946E053C
:10075C000AC1E130A9F4253219F40E946E0502C1D8
:10076C0012E040E000E02D3211F401E0FCC02B322D
:10077C0011F44BE2F8C0203211F440E2F4C002C094
:10078C00E23039F450E013E0203311F40068EBC090
:10079C0003C0E33009F0E7C0203310F02A3308F02F
:1007AC0007C0AAE05A9F502DE22FE0535E0FDBC02A
:1007BC00E22FE33649F40E947505E889F989A48192
:1007CC00AA930E947B05CEC0E33741F40E947505C5
:1007DC000E9481050E9403051E2F0AC0E03761F4B8
:1007EC000E9475050E9481050E940F051E2F08604E
:1007FC0002600F7730E034C0E43611F0E93611F4C2
:10080C00046002C0E53731F4E4E5F0E0EE83FF83E9
:10081C0015E00CC0E83511F4086003C0E83709F0A6
:10082C00A1C0EEE5F0E0EE83FF8314E002FF14C0FC
:10083C000E9475050E948B05AB85AA233AF4EA85C4
:10084C00FB850E94A805EA87FB874DE2403011F03A
:10085C001F5F01C00B7F04C00E9475050E948B05B1
:10086C0000FD11C0151778F407FF08C002FF04C083
:10087C000B7F242F115001C020E301C020E20E9405
:10088C006E055150EFCF312F01FF17C03030A1F062
:10089C0003FF06C0EE81FF812591EE83FF8305C027
:1008AC00AE81BF812D91AE83BF830E946E05503007
:1008BC0009F051503150EACF4BC020E3EE81FF815B
:1008CC000E94C705E887F987EE81FF813296EE8397
:1008DC00FF83E885F985AA85BB85AE17BF0750F065
:1008EC002F5FA885B985EA85FB85EA1BFB0BEA8798
:1008FC00FB87EFCF2A3328F003FF02C0295F01C02A
:10090C00295D04FD1AC0213320F4A885B9851197FF
:10091C0009F409C0531710F000FF01C013C020E206
:10092C0007FF0BC020E3006102FF07C00B7F4A9357
:10093C000E947B05503009F051500E946E055030DA
:10094C0009F051503150A885B985129708F0B5CFF0
:10095C0000FF08C0503031F05150E0E2EA930E94A1
:10096C007B05F8CF10E0E0CEAC85BD850E94C305B9
:10097C000E94D70564960895FF92F82E26970E9440
:10098C00D2050E949305309719F4EFEFFFEF23C0C7
:10099C00DE0116960E94A4058D010E949305EE833C
:1009AC00FF83E0E0E887E987DE011A960E94A40540
:1009BC000E94C305FA93EA931A930A93E0E5F3E0D5
:1009CC00FA93EA93DE011A96A5DE9F01AE81BF81F0
:1009DC00E0E0EC93F9010E94D9052A96FF90089566
:1009EC00BA93AA93E991F991A991B991CD01619129
:1009FC006D936623E1F7FC010895BA93AA93A9912C
:100A0C00B991EE27FF276D91662311F03196FBCF3C
:100A1C000895BA93AA93AA27BB27E991F991059057
:100A2C00002011F01196FBCFFD010895E3E0F0E0FA
:100A3C00AE16BF060895E3E0F0E0CE16DF0608958B
:100A4C00F501A6E0B0E00E94BB05E557FE4FDF01C3
:100A5C00F601EE0FFF1FAE0FBF1F0895E0E0F0E0B0
:100A6C00ED93FC930895E8E0F0E0AE16BF06089510
:100A7C00F501ADE9B1E0EE0FFF1FAE0FBF1FEECFDA
:100A8C000E949000F5010E94AC05EC0DFD1DE09359
:100A9C00AD01F093AE010895A091AD01B091AE01FE
:100AAC000895F501ADE9B1E0EE0FFF1F08950E9426
:100ABC00C305E60FF71FDC01ED93FC9308950E942C
:100ACC000B03A0E30C9410030E9489020C940B03FB
:100ADC002A93AD85BE85EF85F88909950895E88937
:100AEC00F9893497E88BF98B0895AD85BE85EF8530
:100AFC00F88909950895A889B98914960E94C305A7
:100B0C00EE83FF83AE81BF810895A889B9891496BD
:100B1C000E94C305EA87FB870895DE011C960E949C
:100B2C00A4050E94C3050895109639F0A89580ED90
:100B3C0097E00197F1F71197C9F708950024AF0DCD
:100B4C00B01D0895F195E195F0400895EE0FFF1F4B
:100B5C00EE0FFF1F08956F2F660F660B762F08950B
:100B6C00EF2BE1E009F0E0E00895FA9FF02DEB9F08
:100B7C00F00DEA9FE02DF10D0895ED91FC91119788
:100B8C0008950590F491E02D08957A936A93FA9361
:100B9C00EA9308955A934A933A932A931A930A9391
:100BAC0008955D814C813B812A81198108810895CA
:00000001FF
