:0A0000000C9470000C9400000C94A6
:10000A0000000C9400000C9400000C9400000C9466
:10001A0000000C9400000C9400000C9400000C9456
:10002A0000000C9400000C9400000C9400000C9446
:10003A0000000C9400000C9400000C9400000C9436
:10004A0000000C9400000C9400001027E8036400E0
:10005A000A0001000010000110000100FEFDFBF77C
:10006A00065B005072657373204F4E20746F2053E5
:10007A00746172742E2E2E00256400706C6179658D
:10008A007220582077696E7320212100706C617983
:10009A006572204F2077696E7320212100447261B6
:1000AA00770080C00400C10166000200C7016A002F
:1000BA00010060016C00150061016D0011007601FC
:1000CA00850011008701960005009801A70002002B
:1000DA00C901AC000000F894EE27ECBBF1E0FBBFCD
:1000EA00EBBFE5BF8DE0A2E0BB27ED938A95E9F768
:1000FA0080E094E0A0E6ED930197E9F7EEEAF0E0FC
:10010A0085919591009761F0A591B591059015900B
:10011A00BF01F00105900D920197E1F7FB01F0CFC5
:10012A00EFE5EDBFE4E0EEBFC0E6D1E00C94DC0100
:10013A00AA24BB24E4E0F0E0AE16BF0694F56F01F2
:10014A00A1ECB1E0AA0DBB1DEC91E5BBEFE0E4BB6D
:10015A009C9902C0CC24DD249D9903C0E1E0F0E023
:10016A006F019E9903C0E2E0F0E06F019F9903C01E
:10017A00E3E0F0E06F01E4E0F0E0EC15FD0549F0A2
:10018A009C9BFECF9D9BFECF9E9BFECF9F9BFECF4F
:10019A000895A5E0B0E00E94B905F50131965F0126
:1001AA00C9CFC6CF442455246624772488249924A9
:1001BA00E5ECF1E0FA93EA93A0E6B1E00E940E05BD
:1001CA00AA24BB240E9434058CF4CC24DD240E948A
:1001DA00390544F40E943E050E944C05F601319609
:1001EA006F01F5CFF50131965F01ECCFAA24BB244C
:1001FA000E94510534F40E945605F50131965F01BB
:10020A00F7CFAA24BB24CC24DD240E94D602A1E67F
:10021A00B1E00E9412030E945E050E946A051C97C3
:10022A00D1F70E94D602E3E0F0E05F0100240A144D
:10023A000B04FCF4E5ECF1E0FA93EA93E2E8F0E06F
:10024A00FA93EA93F5010E94D0050E94EA0584E038
:10025A000E94DA042896A5ECB1E00E941203A4E6F3
:10026A00B0E00E94B9050E94D602F50131975F01FC
:10027A00DDCF0E946F0508950E94D602AA24BB24EE
:10028A000E94340544F5CC24DD240E943905FCF48F
:10029A00CA92AA2D0E94C2020E943E050E94E2054D
:1002AA00E130A0E0FA0711F4A8E50BC00E943E0570
:1002BA000E94E205EF3FAFEFFA0711F4AFE401C085
:1002CA00ADE20E94EB02F60131966F01DECFF50135
:1002DA0031965F01D5CF0895AA24BB240E94510507
:1002EA0034F40E945605F50131965F01F7CFAA242E
:1002FA00BB240E9434050CF059C0CC24DD240E9492
:10030A0039050CF04FC00E947605EA0FFB1FCF019A
:10031A00608171810E943E050E947C05F501339639
:10032A00AFEAB1E0EE0FFF1FEA0FFB1FCF016081BA
:10033A007181F601A6E0B0E00E94DA05E356FE4FAD
:10034A00DF01F501EE0FFF1FAE0FBF1F0E947C05F4
:10035A00CA14DB0471F40E943E050E94E205A091D2
:10036A00BB01B091BC01EA0FFB1FE093BB01F09304
:10037A00BC01F601EA0DFB1DE230A0E0FA0771F4B8
:10038A000E943E050E94E205A091BD01B091BE0106
:10039A00EA0FFB1FE093BD01F093BE01F60131960F
:1003AA006F01ADCFF50131965F01A3CF0895EFEF4D
:1003BA00E5BBEFE0E4BBE0E0EBBBEFEFEABBA4E1B7
:1003CA000E943403EFDE58DF082C092809F069C0BF
:1003DA00AFDEE3E0F0E0EA15FB0519F0EC15FD05E8
:1003EA0009F41EC00E943E050E94E2053097C1F43E
:1003FA00042C052829F40E943E05E1E0F0E004C03F
:10040A000E943E05EFEFFFEFED93FC93F2010E948D
:10041A00D5054E2E55240E946F05F30131963F01F2
:10042A00F5010E94CB05EC0DFD1DE093BF01F09391
:10043A00C0010E946A051D9709F4B4DE1DDF4CDF76
:10044A00AA24BB240E945105F4F40E947605AE0F3B
:10045A00BF1F0E94E205E330A0E0FA0719F4E1E0C9
:10046A00F0E00CC00E947605AE0FBF1F0E94E205A5
:10047A00ED3FAFEFFA0719F4EFEFFFEF4F01F50188
:10048A0031965F01DFCFE9E0F0E0E615F70521F4E8
:10049A0000240814090409F003C0E2E0F0E04F0167
:1004AA0093CFE3E0EA93A3E00E94C202E1E0F0E026
:1004BA00E815F90519F4A6E7B1E014C0EFEFFFEF6C
:1004CA00E815F90519F4A7E8B1E00CC0E2E0F0E09C
:1004DA00E815F90549F4E9E0EA93A3E00E94C202AB
:1004EA00A8E9B1E00E9412030E945E050E946A0513
:1004FA001D9709F457DEF8CFFFCFFFE0FA95F1F721
:10050A000895A1B3AF70A1BB919A9098F6DF929A21
:10051A00F4DFA0B39298F1DF929AEFDF9298A7FDE9
:10052A00F5CF0895A07FAB2BA2BB929A0E948202BC
:10053A0092980E9482020895AA939198A1B3A76FF4
:10054A00A1BBB2B3BF70A881EDDFA881A295EADF93
:10055A00919A0C946603929A0E948202E0B392984E
:10056A000E948202E07F08950E948202F4DFAE2F89
:10057A00F2DF9198E295EA2B0895AA930E948602E7
:10058A00E881F0E0E753FE4FE081A981AE0F0E94B7
:10059A00A102E981E093CD01E881E093CE012296A0
:1005AA0008950E948602A2E00E94A1020E94860289
:1005BA00ACE00E94A1020E948602A1E00E94A10270
:1005CA00E0E0E093CE01E093CD010895AA93EF9382
:1005DA00FF93A8816894AA3039F0E894E091CF019A
:1005EA00A091CD01AE1758F0E091CE01EF5FE093F4
:1005FA00CE01E0E0EA93A091CE01BFDF56F0E09190
:10060A00CD01EF5FE093CD017CDF909AA8810E9433
:10061A00A102FF91EF910C946603BA93AA931A93DD
:10062A00A981BA81ED91A983BA831E2FE03019F00E
:10063A00A12FCCDFF5CF188123960895AA27BB27CF
:10064A001197F1F70895AA939198A1B3A76FA1BB47
:10065A00B2B3BF70A8810E949702919A32C0AA933E
:10066A0092989098E881E093CF01E058E093CB010B
:10067A00E881E054E093CC010E9484050E9484053D
:10068A000E948405DBDFA0E2DEDFD8DFA8E20E9459
:10069A008905A4E00E948905A5E80E948905A1B3FD
:1006AA00AF70A1BB919A0E94B902E53011F0E0E067
:1006BA0008C00E948602A6E00E94A1020E94D602F9
:1006CA00E1E021960895BA93AA931A930A93AA810C
:1006DA00BB8112960E94E205309759F1AA81BB812B
:1006EA0014960E94E2058F01309761F00230E0E033
:1006FA001E0798F0F80131978F01AA81BB811496E1
:10070A00ED93FC93AA81BB811296ED91FD913196EE
:10071A00FE93EE933197AC81A083AA81BB810E949C
:10072A00E205FF232AF0ED91FD913196FE93EE93B7
:10073A0006C0AA81BB81EFEFFFEFED93FC9319810D
:10074A00088125960895BA93AA9326970E94EF05E1
:10075A0010E0AC85BD850E944C05EA89FB8931967B
:10076A00EA8BFB8B3197E4912E2FE03009F415C107
:10077A00E12FE03039F4253211F411E002C00E9471
:10078A008D050AC1E130A9F4253219F40E948D05BC
:10079A0002C112E040E000E02D3211F401E0FCC099
:1007AA002B3211F44BE2F8C0203211F440E2F4C0CB
:1007BA0002C0E23039F450E013E0203311F400684B
:1007CA00EBC003C0E33009F0E7C0203310F02A334E
:1007DA0008F007C0AAE05A9F502DE22FE0535E0F9F
:1007EA00DBC0E22FE33649F40E949405E889F989CF
:1007FA00A481AA930E949A05CEC0E33741F40E94CD
:10080A0094050E94A0050E941B051E2F0AC0E0370E
:10081A0061F40E9494050E94A0050E9427051E2FDC
:10082A00086002600F7730E034C0E43611F0E93630
:10083A0011F4046002C0E53731F4E4E5F0E0EE8338
:10084A00FF8315E00CC0E83511F4086003C0E837EF
:10085A0009F0A1C0EEE5F0E0EE83FF8314E002FFA9
:10086A0014C00E9494050E94AA05AB85AA233AF4F3
:10087A00EA85FB850E94C705EA87FB874DE240307F
:10088A0011F01F5F01C00B7F04C00E9494050E94F3
:10089A00AA0500FD11C0151778F407FF08C002FF6A
:1008AA0004C00B7F242F115001C020E301C020E2B5
:1008BA000E948D055150EFCF312F01FF17C0303004
:1008CA00A1F003FF06C0EE81FF812591EE83FF832D
:1008DA0005C0AE81BF812D91AE83BF830E948D0575
:1008EA00503009F051503150EACF4BC020E3EE812D
:1008FA00FF810E94E605E887F987EE81FF8132963B
:10090A00EE83FF83E885F985AA85BB85AE17BF0705
:10091A0050F02F5FA885B985EA85FB85EA1BFB0B9A
:10092A00EA87FB87EFCF2A3328F003FF02C0295F4B
:10093A0001C0295D04FD1AC0213320F4A885B985B8
:10094A00119709F409C0531710F000FF01C013C032
:10095A0020E207FF0BC020E3006102FF07C00B7F04
:10096A004A930E949A05503009F051500E948D0511
:10097A00503009F051503150A885B985129708F0C6
:10098A00B5CF00FF08C0503031F05150E0E2EA9391
:10099A000E949A05F8CF10E0E0CEAC85BD850E9492
:1009AA00E2050E94F60564960895FF92F82E2697AE
:1009BA000E94F1050E94B205309719F4EFEFFFEF9C
:1009CA0023C0DE0116960E94C3058D010E94B2055E
:1009DA00EE83FF83E0E0E887E987DE011A960E944A
:1009EA00C3050E94E205FA93EA931A930A93E8E68A
:1009FA00F3E0FA93EA93DE011A96A5DE9F01AE812F
:100A0A00BF81E0E0EC93F9010E94F8052A96FF9075
:100A1A000895BA93AA93E991F991A991B991CD014F
:100A2A0061916D936623E1F7FC010895BA93AA9345
:100A3A00A991B991EE27FF276D91662311F031969E
:100A4A00FBCF0895BA93AA93AA27BB27E991F991F4
:100A5A000590002011F01196FBCFFD010895E3E007
:100A6A00F0E0AE16BF060895E3E0F0E0CE16DF062A
:100A7A000895F501A6E0B0E00E94DA05E356FE4FBC
:100A8A00DF01F601EE0FFF1FAE0FBF1F0895E0E072
:100A9A00F0E0ED93FC930895E8E0F0E0AE16BF06AF
:100AAA000895F501AFEAB1E0EE0FFF1FAE0FBF1FC9
:100ABA00EECF0E949D00F5010E94CB05EC0DFD1DB5
:100ACA00E093BF01F093C0010895A091BF01B091D6
:100ADA00C0010895A7ECB1E0A40DB51DEC91EBBBE4
:100AEA000895F501AFEAB1E0EE0FFF1F08950E94E5
:100AFA00E205E60FF71FDC01ED93FC9308950E94CF
:100B0A002303A0E30C9428030E94A1020C9423035C
:100B1A002A93AD85BE85EF85F88909950895E889F8
:100B2A00F9893497E88BF98B0895AD85BE85EF85F1
:100B3A00F88909950895A889B98914960E94E20549
:100B4A00EE83FF83AE81BF810895A889B98914967F
:100B5A000E94E205EA87FB870895DE011C960E943F
:100B6A00C3050E94E2050895109639F0A89580ED14
:100B7A0097E00197F1F71197C9F708950024AF0D8F
:100B8A00B01D0895F195E195F0400895EE0FFF1F0D
:100B9A00EE0FFF1F08956F2F660F660B762F0895CD
:100BAA00EF2BE1E009F0E0E00895FA9FF02DEB9FCA
:100BBA00F00DEA9FE02DF10D0895ED91FC9111974A
:100BCA0008950590F491E02D08957A936A93FA9323
:100BDA00EA9308955A934A933A932A931A930A9353
:100BEA0008955D814C813B812A811981088108958C
:00000001FF
